{
  "contractName": "MetaRocks",
  "abi": [
    {
      "inputs": [
        {
          "internalType": "address",
          "name": "_manager",
          "type": "address"
        }
      ],
      "stateMutability": "nonpayable",
      "type": "constructor"
    },
    {
      "anonymous": false,
      "inputs": [
        {
          "indexed": true,
          "internalType": "address",
          "name": "item",
          "type": "address"
        },
        {
          "indexed": true,
          "internalType": "address",
          "name": "applyer",
          "type": "address"
        },
        {
          "indexed": true,
          "internalType": "uint256",
          "name": "tokenId",
          "type": "uint256"
        }
      ],
      "name": "Mint",
      "type": "event"
    },
    {
      "inputs": [
        {
          "internalType": "address",
          "name": "",
          "type": "address"
        },
        {
          "internalType": "uint256",
          "name": "",
          "type": "uint256"
        }
      ],
      "name": "TokenProps",
      "outputs": [
        {
          "internalType": "bytes3",
          "name": "rock1_color",
          "type": "bytes3"
        },
        {
          "internalType": "bytes3",
          "name": "rock2_color",
          "type": "bytes3"
        },
        {
          "internalType": "bytes3",
          "name": "rock3_color",
          "type": "bytes3"
        },
        {
          "internalType": "bytes3",
          "name": "rock4_color",
          "type": "bytes3"
        },
        {
          "internalType": "bytes3",
          "name": "rock5_color",
          "type": "bytes3"
        }
      ],
      "stateMutability": "view",
      "type": "function",
      "constant": true
    },
    {
      "inputs": [],
      "name": "manager",
      "outputs": [
        {
          "internalType": "address",
          "name": "",
          "type": "address"
        }
      ],
      "stateMutability": "view",
      "type": "function",
      "constant": true
    },
    {
      "inputs": [],
      "name": "tokenId",
      "outputs": [
        {
          "internalType": "uint256",
          "name": "",
          "type": "uint256"
        }
      ],
      "stateMutability": "view",
      "type": "function",
      "constant": true
    },
    {
      "inputs": [
        {
          "internalType": "bytes3",
          "name": "rock1_color",
          "type": "bytes3"
        }
      ],
      "name": "RecordCurrentTokenProps",
      "outputs": [
        {
          "internalType": "bool",
          "name": "",
          "type": "bool"
        }
      ],
      "stateMutability": "nonpayable",
      "type": "function"
    },
    {
      "inputs": [
        {
          "internalType": "contract INFTChallegeCore",
          "name": "item",
          "type": "address"
        }
      ],
      "name": "MintNft",
      "outputs": [
        {
          "internalType": "bool",
          "name": "",
          "type": "bool"
        }
      ],
      "stateMutability": "nonpayable",
      "type": "function"
    }
  ],
  "bytecode": "0x608060405234801561001057600080fd5b506040516108113803806108118339818101604052810190610032919061008d565b806000806101000a81548173ffffffffffffffffffffffffffffffffffffffff021916908373ffffffffffffffffffffffffffffffffffffffff16021790555050610108565b600081519050610087816100f1565b92915050565b6000602082840312156100a3576100a26100ec565b5b60006100b184828501610078565b91505092915050565b60006100c5826100cc565b9050919050565b600073ffffffffffffffffffffffffffffffffffffffff82169050919050565b600080fd5b6100fa816100ba565b811461010557600080fd5b50565b6106fa806101176000396000f3fe608060405234801561001057600080fd5b50600436106100575760003560e01c80630f7ed79f1461005c57806316c7ece11461008c57806317d70f7c146100bc578063481c6a75146100da578063e035757b146100f8575b600080fd5b61007660048036038101906100719190610418565b61012c565b60405161008391906104c5565b60405180910390f35b6100a660048036038101906100a191906103eb565b61023c565b6040516100b391906104c5565b60405180910390f35b6100c4610267565b6040516100d19190610533565b60405180910390f35b6100e261026d565b6040516100ef9190610481565b60405180910390f35b610112600480360381019061010d919061037e565b610291565b6040516101239594939291906104e0565b60405180910390f35b60008173ffffffffffffffffffffffffffffffffffffffff166340c10f19336002546040518363ffffffff1660e01b815260040161016b92919061049c565b602060405180830381600087803b15801561018557600080fd5b505af1158015610199573d6000803e3d6000fd5b505050506040513d601f19601f820116820180604052508101906101bd91906103be565b50600260008154809291906101d1906105d4565b91905055506002543373ffffffffffffffffffffffffffffffffffffffff168373ffffffffffffffffffffffffffffffffffffffff167fab8530f87dc9b59234c4623bf917212bb2536d647574c8e7e5da92c2ede0c9f860405160405180910390a460019050919050565b600081600360000160006101000a81548162ffffff021916908360e81c021790555060019050919050565b60025481565b60008054906101000a900473ffffffffffffffffffffffffffffffffffffffff1681565b6001602052816000526040600020602052806000526040600020600091509150508060000160009054906101000a900460e81b908060000160039054906101000a900460e81b908060000160069054906101000a900460e81b908060000160099054906101000a900460e81b9080600001600c9054906101000a900460e81b905085565b60008135905061032481610651565b92915050565b60008151905061033981610668565b92915050565b60008135905061034e8161067f565b92915050565b60008135905061036381610696565b92915050565b600081359050610378816106ad565b92915050565b600080604083850312156103955761039461064c565b5b60006103a385828601610315565b92505060206103b485828601610369565b9150509250929050565b6000602082840312156103d4576103d361064c565b5b60006103e28482850161032a565b91505092915050565b6000602082840312156104015761040061064c565b5b600061040f8482850161033f565b91505092915050565b60006020828403121561042e5761042d61064c565b5b600061043c84828501610354565b91505092915050565b61044e8161054e565b82525050565b61045d81610560565b82525050565b61046c8161056c565b82525050565b61047b816105ca565b82525050565b60006020820190506104966000830184610445565b92915050565b60006040820190506104b16000830185610445565b6104be6020830184610472565b9392505050565b60006020820190506104da6000830184610454565b92915050565b600060a0820190506104f56000830188610463565b6105026020830187610463565b61050f6040830186610463565b61051c6060830185610463565b6105296080830184610463565b9695505050505050565b60006020820190506105486000830184610472565b92915050565b6000610559826105aa565b9050919050565b60008115159050919050565b60007fffffff000000000000000000000000000000000000000000000000000000000082169050919050565b60006105a38261054e565b9050919050565b600073ffffffffffffffffffffffffffffffffffffffff82169050919050565b6000819050919050565b60006105df826105ca565b91507fffffffffffffffffffffffffffffffffffffffffffffffffffffffffffffffff8214156106125761061161061d565b5b600182019050919050565b7f4e487b7100000000000000000000000000000000000000000000000000000000600052601160045260246000fd5b600080fd5b61065a8161054e565b811461066557600080fd5b50565b61067181610560565b811461067c57600080fd5b50565b6106888161056c565b811461069357600080fd5b50565b61069f81610598565b81146106aa57600080fd5b50565b6106b6816105ca565b81146106c157600080fd5b5056fea26469706673582212208ef7c54571e33b4e557520260b90f27c16af8f78a02bbf804892b8e163bebce764736f6c63430008070033",
  "immutableReferences": {},
  "source": "// SPDX-License-Identifier: MIT\n\npragma solidity ^0.8.0;\nimport \"./interfaces/IERC721.sol\";\nimport \"./interfaces/INFTChallegeCore.sol\";\nimport \"./IMetaRocks.sol\";\n\n/**\n * Item using NFTChallege platform.\n */\ncontract MetaRocks is IMetaRocks {\n\n    struct Props{\n        bytes3 rock1_color;\n        bytes3 rock2_color;\n        bytes3 rock3_color;\n        bytes3 rock4_color;\n        bytes3 rock5_color;\n    }\n\n    address public override manager;\n    mapping (address => mapping(uint256 => Props)) public TokenProps;\n\n    uint256 public tokenId;\n    Props private _TokenProp;\n\n\n    constructor(address _manager) {\n        manager = _manager;\n    }\n\n    modifier onlyManager {\n        require(msg.sender == manager, 'only manager can call it.');\n        _;\n    }\n\n    function RecordCurrentTokenProps(bytes3 rock1_color) external override returns(bool){\n        _TokenProp.rock1_color = rock1_color;\n        return true;\n    }\n\n    /// \n    function MintNft(INFTChallegeCore item) public override returns(bool) {\n        item.mint(msg.sender, tokenId);\n        tokenId++;\n        emit Mint(address(item), msg.sender, tokenId);\n        return true;\n    }\n\n}",
  "sourcePath": "/Users/leo/blockchain/hackathon/near-MetaBuild/MetaRocks/contracts/MetaRocks.sol",
  "compiler": {
    "name": "solc",
    "version": "0.8.7+commit.e28d00a7.Emscripten.clang"
  },
  "schemaVersion": "3.4.1",
  "updatedAt": "2021-09-19T02:44:04.573Z",
  "networkType": "ethereum",
  "devdoc": {
    "kind": "dev",
    "methods": {},
    "version": 1
  },
  "userdoc": {
    "kind": "user",
    "methods": {},
    "notice": "Item using NFTChallege platform.",
    "version": 1
  }
}